{
  "_format": "hh-sol-artifact-1",
  "contractName": "VotingContract",
  "sourceName": "contracts/VotingContract.sol",
  "abi": [
    {
      "inputs": [
        {
          "internalType": "address",
          "name": "initialOwner",
          "type": "address"
        }
      ],
      "stateMutability": "nonpayable",
      "type": "constructor"
    },
    {
      "inputs": [
        {
          "internalType": "address",
          "name": "owner",
          "type": "address"
        }
      ],
      "name": "OwnableInvalidOwner",
      "type": "error"
    },
    {
      "inputs": [
        {
          "internalType": "address",
          "name": "account",
          "type": "address"
        }
      ],
      "name": "OwnableUnauthorizedAccount",
      "type": "error"
    },
    {
      "anonymous": false,
      "inputs": [
        {
          "indexed": true,
          "internalType": "uint256",
          "name": "electionId",
          "type": "uint256"
        },
        {
          "indexed": false,
          "internalType": "uint256",
          "name": "startTime",
          "type": "uint256"
        },
        {
          "indexed": false,
          "internalType": "uint256",
          "name": "endTime",
          "type": "uint256"
        }
      ],
      "name": "ElectionCreated",
      "type": "event"
    },
    {
      "anonymous": false,
      "inputs": [
        {
          "indexed": true,
          "internalType": "address",
          "name": "previousOwner",
          "type": "address"
        },
        {
          "indexed": true,
          "internalType": "address",
          "name": "newOwner",
          "type": "address"
        }
      ],
      "name": "OwnershipTransferred",
      "type": "event"
    },
    {
      "anonymous": false,
      "inputs": [
        {
          "indexed": true,
          "internalType": "uint256",
          "name": "electionId",
          "type": "uint256"
        },
        {
          "indexed": true,
          "internalType": "string",
          "name": "candidateId",
          "type": "string"
        }
      ],
      "name": "VoteCast",
      "type": "event"
    },
    {
      "inputs": [
        {
          "internalType": "uint256",
          "name": "electionId",
          "type": "uint256"
        },
        {
          "internalType": "string",
          "name": "candidateId",
          "type": "string"
        },
        {
          "internalType": "bytes32",
          "name": "hashedCitizenId",
          "type": "bytes32"
        },
        {
          "internalType": "uint256[2]",
          "name": "a",
          "type": "uint256[2]"
        },
        {
          "internalType": "uint256[2][2]",
          "name": "b",
          "type": "uint256[2][2]"
        },
        {
          "internalType": "uint256[2]",
          "name": "c",
          "type": "uint256[2]"
        },
        {
          "internalType": "uint256[2]",
          "name": "input",
          "type": "uint256[2]"
        }
      ],
      "name": "castVote",
      "outputs": [],
      "stateMutability": "nonpayable",
      "type": "function"
    },
    {
      "inputs": [
        {
          "internalType": "uint256",
          "name": "electionId",
          "type": "uint256"
        },
        {
          "internalType": "uint256",
          "name": "startTime",
          "type": "uint256"
        },
        {
          "internalType": "uint256",
          "name": "endTime",
          "type": "uint256"
        }
      ],
      "name": "createElection",
      "outputs": [],
      "stateMutability": "nonpayable",
      "type": "function"
    },
    {
      "inputs": [
        {
          "internalType": "uint256",
          "name": "",
          "type": "uint256"
        }
      ],
      "name": "elections",
      "outputs": [
        {
          "internalType": "uint256",
          "name": "startTime",
          "type": "uint256"
        },
        {
          "internalType": "uint256",
          "name": "endTime",
          "type": "uint256"
        },
        {
          "internalType": "bool",
          "name": "isActive",
          "type": "bool"
        }
      ],
      "stateMutability": "view",
      "type": "function"
    },
    {
      "inputs": [
        {
          "internalType": "uint256",
          "name": "electionId",
          "type": "uint256"
        },
        {
          "internalType": "string",
          "name": "candidateId",
          "type": "string"
        }
      ],
      "name": "getVoteCount",
      "outputs": [
        {
          "internalType": "uint256",
          "name": "",
          "type": "uint256"
        }
      ],
      "stateMutability": "view",
      "type": "function"
    },
    {
      "inputs": [
        {
          "internalType": "uint256",
          "name": "",
          "type": "uint256"
        },
        {
          "internalType": "bytes32",
          "name": "",
          "type": "bytes32"
        }
      ],
      "name": "hasVoted",
      "outputs": [
        {
          "internalType": "bool",
          "name": "",
          "type": "bool"
        }
      ],
      "stateMutability": "view",
      "type": "function"
    },
    {
      "inputs": [],
      "name": "owner",
      "outputs": [
        {
          "internalType": "address",
          "name": "",
          "type": "address"
        }
      ],
      "stateMutability": "view",
      "type": "function"
    },
    {
      "inputs": [],
      "name": "renounceOwnership",
      "outputs": [],
      "stateMutability": "nonpayable",
      "type": "function"
    },
    {
      "inputs": [
        {
          "internalType": "address",
          "name": "newOwner",
          "type": "address"
        }
      ],
      "name": "transferOwnership",
      "outputs": [],
      "stateMutability": "nonpayable",
      "type": "function"
    },
    {
      "inputs": [
        {
          "internalType": "uint256",
          "name": "",
          "type": "uint256"
        },
        {
          "internalType": "string",
          "name": "",
          "type": "string"
        }
      ],
      "name": "voteCounts",
      "outputs": [
        {
          "internalType": "uint256",
          "name": "",
          "type": "uint256"
        }
      ],
      "stateMutability": "view",
      "type": "function"
    }
  ],
  "bytecode": "0x608060405234801561001057600080fd5b5060405161157a38038061157a833981810160405281019061003291906101e2565b80600073ffffffffffffffffffffffffffffffffffffffff168173ffffffffffffffffffffffffffffffffffffffff16036100a55760006040517f1e4fbdf700000000000000000000000000000000000000000000000000000000815260040161009c919061021e565b60405180910390fd5b6100b4816100bb60201b60201c565b5050610239565b60008060009054906101000a900473ffffffffffffffffffffffffffffffffffffffff169050816000806101000a81548173ffffffffffffffffffffffffffffffffffffffff021916908373ffffffffffffffffffffffffffffffffffffffff1602179055508173ffffffffffffffffffffffffffffffffffffffff168173ffffffffffffffffffffffffffffffffffffffff167f8be0079c531659141344cd1fd0a4f28419497f9722a3daafe3b4186f6b6457e060405160405180910390a35050565b600080fd5b600073ffffffffffffffffffffffffffffffffffffffff82169050919050565b60006101af82610184565b9050919050565b6101bf816101a4565b81146101ca57600080fd5b50565b6000815190506101dc816101b6565b92915050565b6000602082840312156101f8576101f761017f565b5b6000610206848285016101cd565b91505092915050565b610218816101a4565b82525050565b6000602082019050610233600083018461020f565b92915050565b611332806102486000396000f3fe608060405234801561001057600080fd5b50600436106100935760003560e01c8063b444de8f11610066578063b444de8f14610122578063dd61a65d1461013e578063e4021c131461016e578063eeae2ce01461018a578063f2fde38b146101ba57610093565b80635e6fef0114610098578063715018a6146100ca57806374417bf4146100d45780638da5cb5b14610104575b600080fd5b6100b260048036038101906100ad91906108e3565b6101d6565b6040516100c19392919061093a565b60405180910390f35b6100d261020d565b005b6100ee60048036038101906100e991906109a7565b610221565b6040516100fb91906109e7565b60405180910390f35b61010c610250565b6040516101199190610a43565b60405180910390f35b61013c60048036038101906101379190610d0b565b610279565b005b61015860048036038101906101539190610dcc565b6104e2565b6040516101659190610e28565b60405180910390f35b61018860048036038101906101839190610e43565b61051c565b005b6101a4600480360381019061019f9190610dcc565b610677565b6040516101b19190610e28565b60405180910390f35b6101d460048036038101906101cf9190610ec2565b6106b2565b005b60016020528060005260406000206000915090508060000154908060010154908060020160009054906101000a900460ff16905083565b610215610738565b61021f60006107bf565b565b60026020528160005260406000206020528060005260406000206000915091509054906101000a900460ff1681565b60008060009054906101000a900473ffffffffffffffffffffffffffffffffffffffff16905090565b6001600088815260200190815260200160002060020160009054906101000a900460ff166102dc576040517f08c379a00000000000000000000000000000000000000000000000000000000081526004016102d390610f72565b60405180910390fd5b60016000888152602001908152602001600020600001544210158015610318575060016000888152602001908152602001600020600101544211155b610357576040517f08c379a000000000000000000000000000000000000000000000000000000000815260040161034e90610fde565b60405180910390fd5b60026000888152602001908152602001600020600086815260200190815260200160002060009054906101000a900460ff16156103c9576040517f08c379a00000000000000000000000000000000000000000000000000000000081526004016103c090611070565b60405180910390fd5b6103d584848484610883565b610414576040517f08c379a000000000000000000000000000000000000000000000000000000000815260040161040b906110dc565b60405180910390fd5b600160026000898152602001908152602001600020600087815260200190815260200160002060006101000a81548160ff0219169083151502179055506003600088815260200190815260200160002086604051610472919061116d565b90815260200160405180910390206000815480929190610491906111b3565b9190505550856040516104a4919061116d565b6040518091039020877f26b8bb11f3c32b3756310fd2a521248252d66e44f3eb3536fca4373241956d4360405160405180910390a350505050505050565b60006003600084815260200190815260200160002082604051610505919061116d565b908152602001604051809103902054905092915050565b610524610738565b600015156001600085815260200190815260200160002060020160009054906101000a900460ff1615151461058e576040517f08c379a000000000000000000000000000000000000000000000000000000000815260040161058590611247565b60405180910390fd5b8082106105d0576040517f08c379a00000000000000000000000000000000000000000000000000000000081526004016105c7906112b3565b60405180910390fd5b60405180606001604052808381526020018281526020016001151581525060016000858152602001908152602001600020600082015181600001556020820151816001015560408201518160020160006101000a81548160ff021916908315150217905550905050827fe9aa078f1077eb24a3eae58315307861a78b377ee76beb0d0944c496800ae700838360405161066a9291906112d3565b60405180910390a2505050565b600360205281600052604060002081805160208101820180518482526020830160208501208183528095505050505050600091509150505481565b6106ba610738565b600073ffffffffffffffffffffffffffffffffffffffff168173ffffffffffffffffffffffffffffffffffffffff160361072c5760006040517f1e4fbdf70000000000000000000000000000000000000000000000000000000081526004016107239190610a43565b60405180910390fd5b610735816107bf565b50565b610740610891565b73ffffffffffffffffffffffffffffffffffffffff1661075e610250565b73ffffffffffffffffffffffffffffffffffffffff16146107bd57610781610891565b6040517f118cdaa70000000000000000000000000000000000000000000000000000000081526004016107b49190610a43565b60405180910390fd5b565b60008060009054906101000a900473ffffffffffffffffffffffffffffffffffffffff169050816000806101000a81548173ffffffffffffffffffffffffffffffffffffffff021916908373ffffffffffffffffffffffffffffffffffffffff1602179055508173ffffffffffffffffffffffffffffffffffffffff168173ffffffffffffffffffffffffffffffffffffffff167f8be0079c531659141344cd1fd0a4f28419497f9722a3daafe3b4186f6b6457e060405160405180910390a35050565b600060019050949350505050565b600033905090565b6000604051905090565b600080fd5b600080fd5b6000819050919050565b6108c0816108ad565b81146108cb57600080fd5b50565b6000813590506108dd816108b7565b92915050565b6000602082840312156108f9576108f86108a3565b5b6000610907848285016108ce565b91505092915050565b610919816108ad565b82525050565b60008115159050919050565b6109348161091f565b82525050565b600060608201905061094f6000830186610910565b61095c6020830185610910565b610969604083018461092b565b949350505050565b6000819050919050565b61098481610971565b811461098f57600080fd5b50565b6000813590506109a18161097b565b92915050565b600080604083850312156109be576109bd6108a3565b5b60006109cc858286016108ce565b92505060206109dd85828601610992565b9150509250929050565b60006020820190506109fc600083018461092b565b92915050565b600073ffffffffffffffffffffffffffffffffffffffff82169050919050565b6000610a2d82610a02565b9050919050565b610a3d81610a22565b82525050565b6000602082019050610a586000830184610a34565b92915050565b600080fd5b600080fd5b6000601f19601f8301169050919050565b7f4e487b7100000000000000000000000000000000000000000000000000000000600052604160045260246000fd5b610ab182610a68565b810181811067ffffffffffffffff82111715610ad057610acf610a79565b5b80604052505050565b6000610ae3610899565b9050610aef8282610aa8565b919050565b600067ffffffffffffffff821115610b0f57610b0e610a79565b5b610b1882610a68565b9050602081019050919050565b82818337600083830152505050565b6000610b47610b4284610af4565b610ad9565b905082815260208101848484011115610b6357610b62610a63565b5b610b6e848285610b25565b509392505050565b600082601f830112610b8b57610b8a610a5e565b5b8135610b9b848260208601610b34565b91505092915050565b600067ffffffffffffffff821115610bbf57610bbe610a79565b5b602082029050919050565b600080fd5b6000610be2610bdd84610ba4565b610ad9565b90508060208402830185811115610bfc57610bfb610bca565b5b835b81811015610c255780610c1188826108ce565b845260208401935050602081019050610bfe565b5050509392505050565b600082601f830112610c4457610c43610a5e565b5b6002610c51848285610bcf565b91505092915050565b600067ffffffffffffffff821115610c7557610c74610a79565b5b602082029050919050565b6000610c93610c8e84610c5a565b610ad9565b90508060408402830185811115610cad57610cac610bca565b5b835b81811015610cd65780610cc28882610c2f565b845260208401935050604081019050610caf565b5050509392505050565b600082601f830112610cf557610cf4610a5e565b5b6002610d02848285610c80565b91505092915050565b60008060008060008060006101a0888a031215610d2b57610d2a6108a3565b5b6000610d398a828b016108ce565b975050602088013567ffffffffffffffff811115610d5a57610d596108a8565b5b610d668a828b01610b76565b9650506040610d778a828b01610992565b9550506060610d888a828b01610c2f565b94505060a0610d998a828b01610ce0565b935050610120610dab8a828b01610c2f565b925050610160610dbd8a828b01610c2f565b91505092959891949750929550565b60008060408385031215610de357610de26108a3565b5b6000610df1858286016108ce565b925050602083013567ffffffffffffffff811115610e1257610e116108a8565b5b610e1e85828601610b76565b9150509250929050565b6000602082019050610e3d6000830184610910565b92915050565b600080600060608486031215610e5c57610e5b6108a3565b5b6000610e6a868287016108ce565b9350506020610e7b868287016108ce565b9250506040610e8c868287016108ce565b9150509250925092565b610e9f81610a22565b8114610eaa57600080fd5b50565b600081359050610ebc81610e96565b92915050565b600060208284031215610ed857610ed76108a3565b5b6000610ee684828501610ead565b91505092915050565b600082825260208201905092915050565b7f456c656374696f6e20646f6573206e6f74206578697374206f72206973206e6f60008201527f7420616374697665000000000000000000000000000000000000000000000000602082015250565b6000610f5c602883610eef565b9150610f6782610f00565b604082019050919050565b60006020820190508181036000830152610f8b81610f4f565b9050919050565b7f456c656374696f6e206973206e6f742063757272656e746c79206f70656e0000600082015250565b6000610fc8601e83610eef565b9150610fd382610f92565b602082019050919050565b60006020820190508181036000830152610ff781610fbb565b9050919050565b7f436974697a656e2068617320616c726561647920766f74656420696e2074686960008201527f7320656c656374696f6e00000000000000000000000000000000000000000000602082015250565b600061105a602a83610eef565b915061106582610ffe565b604082019050919050565b600060208201905081810360008301526110898161104d565b9050919050565b7f496e76616c6964207a65726f2d6b6e6f776c656467652070726f6f6600000000600082015250565b60006110c6601c83610eef565b91506110d182611090565b602082019050919050565b600060208201905081810360008301526110f5816110b9565b9050919050565b600081519050919050565b600081905092915050565b60005b83811015611130578082015181840152602081019050611115565b60008484015250505050565b6000611147826110fc565b6111518185611107565b9350611161818560208601611112565b80840191505092915050565b6000611179828461113c565b915081905092915050565b7f4e487b7100000000000000000000000000000000000000000000000000000000600052601160045260246000fd5b60006111be826108ad565b91507fffffffffffffffffffffffffffffffffffffffffffffffffffffffffffffffff82036111f0576111ef611184565b5b600182019050919050565b7f456c656374696f6e20616c726561647920657869737473000000000000000000600082015250565b6000611231601783610eef565b915061123c826111fb565b602082019050919050565b6000602082019050818103600083015261126081611224565b9050919050565b7f496e76616c696420656c656374696f6e2074696d652072616e67650000000000600082015250565b600061129d601b83610eef565b91506112a882611267565b602082019050919050565b600060208201905081810360008301526112cc81611290565b9050919050565b60006040820190506112e86000830185610910565b6112f56020830184610910565b939250505056fea26469706673582212206ac07d24d820f544f0ec2290d020d9ea74ea0566214c25c5fe0fdaff75c78df064736f6c634300081b0033",
  "linkReferences": {},
  "deployedLinkReferences": {}
}